{
  "contractName": "AgriBlock",
  "abi": [
    {
      "inputs": [],
      "stateMutability": "nonpayable",
      "type": "constructor"
    },
    {
      "inputs": [],
      "name": "cropCounter",
      "outputs": [
        {
          "internalType": "uint16",
          "name": "",
          "type": "uint16"
        }
      ],
      "stateMutability": "view",
      "type": "function",
      "constant": true
    },
    {
      "inputs": [],
      "name": "dCropCounter",
      "outputs": [
        {
          "internalType": "uint16",
          "name": "",
          "type": "uint16"
        }
      ],
      "stateMutability": "view",
      "type": "function",
      "constant": true
    },
    {
      "inputs": [],
      "name": "sdCropCounter",
      "outputs": [
        {
          "internalType": "uint16",
          "name": "",
          "type": "uint16"
        }
      ],
      "stateMutability": "view",
      "type": "function",
      "constant": true
    },
    {
      "inputs": [
        {
          "internalType": "uint16",
          "name": "_jwari",
          "type": "uint16"
        },
        {
          "internalType": "uint16",
          "name": "_bajari",
          "type": "uint16"
        },
        {
          "internalType": "uint16",
          "name": "_wheat",
          "type": "uint16"
        },
        {
          "internalType": "uint16",
          "name": "_groundnut",
          "type": "uint16"
        }
      ],
      "name": "setPrice",
      "outputs": [],
      "stateMutability": "nonpayable",
      "type": "function"
    },
    {
      "inputs": [
        {
          "internalType": "uint16",
          "name": "_forDealer",
          "type": "uint16"
        },
        {
          "internalType": "uint16",
          "name": "_forSubdealer",
          "type": "uint16"
        }
      ],
      "name": "setProfitPercentage",
      "outputs": [],
      "stateMutability": "nonpayable",
      "type": "function"
    },
    {
      "inputs": [
        {
          "internalType": "string",
          "name": "_farmerName",
          "type": "string"
        },
        {
          "internalType": "string",
          "name": "_phoneNumber",
          "type": "string"
        },
        {
          "internalType": "string",
          "name": "_email",
          "type": "string"
        }
      ],
      "name": "registerFarmer",
      "outputs": [],
      "stateMutability": "nonpayable",
      "type": "function"
    },
    {
      "inputs": [
        {
          "internalType": "uint16",
          "name": "_cropType",
          "type": "uint16"
        },
        {
          "internalType": "uint16",
          "name": "_quantity",
          "type": "uint16"
        },
        {
          "internalType": "string",
          "name": "_location",
          "type": "string"
        }
      ],
      "name": "addCropDetails",
      "outputs": [],
      "stateMutability": "nonpayable",
      "type": "function"
    },
    {
      "inputs": [
        {
          "internalType": "string",
          "name": "_dealerName",
          "type": "string"
        },
        {
          "internalType": "string",
          "name": "_phoneNumber",
          "type": "string"
        },
        {
          "internalType": "string",
          "name": "_email",
          "type": "string"
        }
      ],
      "name": "registerDealer",
      "outputs": [],
      "stateMutability": "nonpayable",
      "type": "function"
    },
    {
      "inputs": [
        {
          "internalType": "uint16",
          "name": "_cropId",
          "type": "uint16"
        }
      ],
      "name": "seeCropsAtFarmer",
      "outputs": [
        {
          "components": [
            {
              "internalType": "uint16",
              "name": "cropId",
              "type": "uint16"
            },
            {
              "internalType": "string",
              "name": "cropName",
              "type": "string"
            },
            {
              "internalType": "uint16",
              "name": "farmer_quantity",
              "type": "uint16"
            },
            {
              "internalType": "string",
              "name": "location",
              "type": "string"
            },
            {
              "internalType": "address payable",
              "name": "farmerAddrs",
              "type": "address"
            },
            {
              "internalType": "address payable",
              "name": "dealerAddrs",
              "type": "address"
            },
            {
              "internalType": "address payable",
              "name": "subDealerAddrs",
              "type": "address"
            },
            {
              "internalType": "bool",
              "name": "isAdded",
              "type": "bool"
            },
            {
              "internalType": "uint16",
              "name": "cropPrice",
              "type": "uint16"
            },
            {
              "internalType": "string",
              "name": "farmerName",
              "type": "string"
            }
          ],
          "internalType": "struct AgriBlock.Crop",
          "name": "",
          "type": "tuple"
        }
      ],
      "stateMutability": "view",
      "type": "function",
      "constant": true
    },
    {
      "inputs": [
        {
          "internalType": "uint16",
          "name": "_cropId",
          "type": "uint16"
        },
        {
          "internalType": "uint16",
          "name": "_quantity",
          "type": "uint16"
        }
      ],
      "name": "buyFromFarmer",
      "outputs": [],
      "stateMutability": "payable",
      "type": "function",
      "payable": true
    },
    {
      "inputs": [
        {
          "internalType": "uint16",
          "name": "_cropId",
          "type": "uint16"
        },
        {
          "internalType": "uint16",
          "name": "_newPrice",
          "type": "uint16"
        }
      ],
      "name": "dealerSetPriceOfCropExpl",
      "outputs": [],
      "stateMutability": "nonpayable",
      "type": "function"
    },
    {
      "inputs": [
        {
          "internalType": "string",
          "name": "_subdealerName",
          "type": "string"
        },
        {
          "internalType": "string",
          "name": "_phoneNumber",
          "type": "string"
        },
        {
          "internalType": "string",
          "name": "_email",
          "type": "string"
        }
      ],
      "name": "registerSubdealer",
      "outputs": [],
      "stateMutability": "nonpayable",
      "type": "function"
    },
    {
      "inputs": [
        {
          "internalType": "uint16",
          "name": "_cropId",
          "type": "uint16"
        }
      ],
      "name": "seeCropsAtDealer",
      "outputs": [
        {
          "components": [
            {
              "internalType": "uint16",
              "name": "cropId",
              "type": "uint16"
            },
            {
              "internalType": "string",
              "name": "cropName",
              "type": "string"
            },
            {
              "internalType": "uint16",
              "name": "farmer_quantity",
              "type": "uint16"
            },
            {
              "internalType": "uint16",
              "name": "dealer_quantity",
              "type": "uint16"
            },
            {
              "internalType": "string",
              "name": "location",
              "type": "string"
            },
            {
              "internalType": "address payable",
              "name": "farmerAddrs",
              "type": "address"
            },
            {
              "internalType": "address payable",
              "name": "dealerAddrs",
              "type": "address"
            },
            {
              "internalType": "uint16",
              "name": "cropPrice",
              "type": "uint16"
            },
            {
              "internalType": "string",
              "name": "dealerName",
              "type": "string"
            }
          ],
          "internalType": "struct AgriBlock.DCrop",
          "name": "",
          "type": "tuple"
        }
      ],
      "stateMutability": "view",
      "type": "function",
      "constant": true
    },
    {
      "inputs": [
        {
          "internalType": "uint16",
          "name": "_cropId",
          "type": "uint16"
        },
        {
          "internalType": "uint16",
          "name": "_quantity",
          "type": "uint16"
        }
      ],
      "name": "buyFromDealer",
      "outputs": [],
      "stateMutability": "payable",
      "type": "function",
      "payable": true
    },
    {
      "inputs": [
        {
          "internalType": "uint16",
          "name": "_cropId",
          "type": "uint16"
        },
        {
          "internalType": "uint16",
          "name": "_newPrice",
          "type": "uint16"
        }
      ],
      "name": "subdealerSetPriceOfCropExpl",
      "outputs": [],
      "stateMutability": "nonpayable",
      "type": "function"
    },
    {
      "inputs": [
        {
          "internalType": "uint16",
          "name": "_cropId",
          "type": "uint16"
        }
      ],
      "name": "seeCropsAtSubdealer",
      "outputs": [
        {
          "components": [
            {
              "internalType": "uint16",
              "name": "cropId",
              "type": "uint16"
            },
            {
              "internalType": "string",
              "name": "cropName",
              "type": "string"
            },
            {
              "internalType": "uint16",
              "name": "farmer_quantity",
              "type": "uint16"
            },
            {
              "internalType": "uint16",
              "name": "dealer_quantity",
              "type": "uint16"
            },
            {
              "internalType": "uint16",
              "name": "subdealer_quantity",
              "type": "uint16"
            },
            {
              "internalType": "string",
              "name": "location",
              "type": "string"
            },
            {
              "internalType": "address payable",
              "name": "farmerAddrs",
              "type": "address"
            },
            {
              "internalType": "address payable",
              "name": "dealerAddrs",
              "type": "address"
            },
            {
              "internalType": "address payable",
              "name": "subdealerAddrs",
              "type": "address"
            },
            {
              "internalType": "uint16",
              "name": "cropPrice",
              "type": "uint16"
            },
            {
              "internalType": "string",
              "name": "subdealerName",
              "type": "string"
            }
          ],
          "internalType": "struct AgriBlock.SDCrop",
          "name": "",
          "type": "tuple"
        }
      ],
      "stateMutability": "view",
      "type": "function",
      "constant": true
    },
    {
      "inputs": [
        {
          "internalType": "uint16",
          "name": "_cropId",
          "type": "uint16"
        },
        {
          "internalType": "uint16",
          "name": "_quantity",
          "type": "uint16"
        }
      ],
      "name": "buyCrop",
      "outputs": [],
      "stateMutability": "payable",
      "type": "function",
      "payable": true
    },
    {
      "inputs": [
        {
          "internalType": "uint16",
          "name": "_cropId",
          "type": "uint16"
        },
        {
          "internalType": "uint16",
          "name": "_quantity",
          "type": "uint16"
        }
      ],
      "name": "getPriceForQuantityInWei",
      "outputs": [
        {
          "internalType": "uint16",
          "name": "_quote",
          "type": "uint16"
        }
      ],
      "stateMutability": "view",
      "type": "function",
      "constant": true
    }
  ],
  "bytecode": "0x60806040526004600160096101000a81548161ffff021916908361ffff16021790555034801561002e57600080fd5b50336000806101000a81548173ffffffffffffffffffffffffffffffffffffffff021916908373ffffffffffffffffffffffffffffffffffffffff160217905550615bf0806200007f6000396000f3fe6080604052600436106101095760003560e01c80639385882a11610095578063db2a09a711610064578063db2a09a714610335578063dfc6652514610351578063e8ff99a91461037a578063ee2c0049146103a5578063f955f452146103e257610109565b80639385882a14610288578063a293b0f0146102b3578063ba2891c2146102dc578063cff31060146102f857610109565b806364afd56d116100dc57806364afd56d146101c657806365ae6018146101ef5780636b8de3741461021a5780637f0dee57146102435780638fe3e2cf1461025f57610109565b806329a566d21461010e57806338bc5782146101375780634af272de14610160578063589019091461019d575b600080fd5b34801561011a57600080fd5b506101356004803603810190610130919061467a565b61041f565b005b34801561014357600080fd5b5061015e600480360381019061015991906147dd565b610833565b005b34801561016c57600080fd5b506101876004803603810190610182919061473a565b610adf565b6040516101949190615869565b60405180910390f35b3480156101a957600080fd5b506101c460048036038101906101bf919061467a565b610c7c565b005b3480156101d257600080fd5b506101ed60048036038101906101e89190614776565b611090565b005b3480156101fb57600080fd5b50610204611748565b6040516102119190615869565b60405180910390f35b34801561022657600080fd5b50610241600480360381019061023c919061467a565b61175c565b005b61025d6004803603810190610258919061473a565b611b70565b005b34801561026b57600080fd5b506102866004803603810190610281919061473a565b6125ca565b005b34801561029457600080fd5b5061029d6126d2565b6040516102aa9190615869565b60405180910390f35b3480156102bf57600080fd5b506102da60048036038101906102d5919061473a565b6126e6565b005b6102f660048036038101906102f1919061473a565b6128e4565b005b34801561030457600080fd5b5061031f600480360381019061031a9190614711565b613239565b60405161032c9190615825565b60405180910390f35b61034f600480360381019061034a919061473a565b6135bc565b005b34801561035d57600080fd5b506103786004803603810190610373919061473a565b61395d565b005b34801561038657600080fd5b5061038f613b7f565b60405161039c9190615869565b60405180910390f35b3480156103b157600080fd5b506103cc60048036038101906103c79190614711565b613b93565b6040516103d99190615847565b60405180910390f35b3480156103ee57600080fd5b5061040960048036038101906104049190614711565b613fab565b6040516104169190615803565b60405180910390f35b60008054906101000a900473ffffffffffffffffffffffffffffffffffffffff1673ffffffffffffffffffffffffffffffffffffffff163373ffffffffffffffffffffffffffffffffffffffff1614156104ae576040517f08c379a00000000000000000000000000000000000000000000000000000000081526004016104a590615503565b60405180910390fd5b60001515600660003373ffffffffffffffffffffffffffffffffffffffff1673ffffffffffffffffffffffffffffffffffffffff16815260200190815260200160002060050160009054906101000a900460ff16151514610544576040517f08c379a000000000000000000000000000000000000000000000000000000000815260040161053b90615543565b60405180910390fd5b60001515600460003373ffffffffffffffffffffffffffffffffffffffff1673ffffffffffffffffffffffffffffffffffffffff16815260200190815260200160002060050160009054906101000a900460ff161515146105da576040517f08c379a00000000000000000000000000000000000000000000000000000000081526004016105d190615623565b60405180910390fd5b60001515600560003373ffffffffffffffffffffffffffffffffffffffff1673ffffffffffffffffffffffffffffffffffffffff16815260200190815260200160002060040160149054906101000a900460ff16151514610670576040517f08c379a0000000000000000000000000000000000000000000000000000000008152600401610667906154a3565b60405180910390fd5b6000601a81819054906101000a900461ffff168092919061069090615aab565b91906101000a81548161ffff021916908361ffff1602179055505060006040518060c001604052806000601a9054906101000a900461ffff1661ffff1681526020018581526020018481526020013373ffffffffffffffffffffffffffffffffffffffff16815260200183815260200160011515815250905080600660003373ffffffffffffffffffffffffffffffffffffffff1673ffffffffffffffffffffffffffffffffffffffff16815260200190815260200160002060008201518160000160006101000a81548161ffff021916908361ffff160217905550602082015181600101908051906020019061078892919061437f565b5060408201518160020190805190602001906107a592919061437f565b5060608201518160030160006101000a81548173ffffffffffffffffffffffffffffffffffffffff021916908373ffffffffffffffffffffffffffffffffffffffff160217905550608082015181600401908051906020019061080992919061437f565b5060a08201518160050160006101000a81548160ff02191690831515021790555090505050505050565b60008054906101000a900473ffffffffffffffffffffffffffffffffffffffff1673ffffffffffffffffffffffffffffffffffffffff163373ffffffffffffffffffffffffffffffffffffffff16146108c1576040517f08c379a00000000000000000000000000000000000000000000000000000000081526004016108b8906154c3565b60405180910390fd5b60648461ffff16101580156108db575060648361ffff1610155b80156108ec575060648261ffff1610155b80156108fd575060648161ffff1610155b61093c576040517f08c379a0000000000000000000000000000000000000000000000000000000008152600401610933906155a3565b60405180910390fd5b836002600060048110610978577f4e487b7100000000000000000000000000000000000000000000000000000000600052603260045260246000fd5b601091828204019190066002026101000a81548161ffff021916908361ffff1602179055508260026001600481106109d9577f4e487b7100000000000000000000000000000000000000000000000000000000600052603260045260246000fd5b601091828204019190066002026101000a81548161ffff021916908361ffff1602179055508160028060048110610a39577f4e487b7100000000000000000000000000000000000000000000000000000000600052603260045260246000fd5b601091828204019190066002026101000a81548161ffff021916908361ffff160217905550806002600360048110610a9a577f4e487b7100000000000000000000000000000000000000000000000000000000600052603260045260246000fd5b601091828204019190066002026101000a81548161ffff021916908361ffff16021790555060018060086101000a81548160ff02191690831515021790555050505050565b600060011515600460003373ffffffffffffffffffffffffffffffffffffffff1673ffffffffffffffffffffffffffffffffffffffff16815260200190815260200160002060050160009054906101000a900460ff1615151415610b8857816001600760008661ffff1661ffff16815260200190815260200160002060060160159054906101000a900461ffff16610b77919061597b565b610b81919061597b565b9050610c76565b60011515600560003373ffffffffffffffffffffffffffffffffffffffff1673ffffffffffffffffffffffffffffffffffffffff16815260200190815260200160002060040160149054906101000a900460ff1615151415610c2f57816001600860008661ffff1661ffff16815260200190815260200160002060050160149054906101000a900461ffff16610c1e919061597b565b610c28919061597b565b9050610c76565b816001600960008661ffff1661ffff16815260200190815260200160002060060160149054906101000a900461ffff16610c69919061597b565b610c73919061597b565b90505b92915050565b60008054906101000a900473ffffffffffffffffffffffffffffffffffffffff1673ffffffffffffffffffffffffffffffffffffffff163373ffffffffffffffffffffffffffffffffffffffff161415610d0b576040517f08c379a0000000000000000000000000000000000000000000000000000000008152600401610d02906156e3565b60405180910390fd5b60001515600560003373ffffffffffffffffffffffffffffffffffffffff1673ffffffffffffffffffffffffffffffffffffffff16815260200190815260200160002060040160149054906101000a900460ff16151514610da1576040517f08c379a0000000000000000000000000000000000000000000000000000000008152600401610d9890615683565b60405180910390fd5b60001515600660003373ffffffffffffffffffffffffffffffffffffffff1673ffffffffffffffffffffffffffffffffffffffff16815260200190815260200160002060050160009054906101000a900460ff16151514610e37576040517f08c379a0000000000000000000000000000000000000000000000000000000008152600401610e2e906157e3565b60405180910390fd5b60001515600460003373ffffffffffffffffffffffffffffffffffffffff1673ffffffffffffffffffffffffffffffffffffffff16815260200190815260200160002060050160009054906101000a900460ff16151514610ecd576040517f08c379a0000000000000000000000000000000000000000000000000000000008152600401610ec4906157c3565b60405180910390fd5b6000601e81819054906101000a900461ffff1680929190610eed90615aab565b91906101000a81548161ffff021916908361ffff1602179055505060006040518060c001604052806000601e9054906101000a900461ffff1661ffff1681526020018581526020018481526020018381526020013373ffffffffffffffffffffffffffffffffffffffff16815260200160011515815250905080600560003373ffffffffffffffffffffffffffffffffffffffff1673ffffffffffffffffffffffffffffffffffffffff16815260200190815260200160002060008201518160000160006101000a81548161ffff021916908361ffff1602179055506020820151816001019080519060200190610fe592919061437f565b50604082015181600201908051906020019061100292919061437f565b50606082015181600301908051906020019061101f92919061437f565b5060808201518160040160006101000a81548173ffffffffffffffffffffffffffffffffffffffff021916908373ffffffffffffffffffffffffffffffffffffffff16021790555060a08201518160040160146101000a81548160ff02191690831515021790555090505050505050565b60008261ffff16116110d7576040517f08c379a00000000000000000000000000000000000000000000000000000000081526004016110ce906157a3565b60405180910390fd5b60011515600660003373ffffffffffffffffffffffffffffffffffffffff1673ffffffffffffffffffffffffffffffffffffffff16815260200190815260200160002060050160009054906101000a900460ff1615151461116d576040517f08c379a0000000000000000000000000000000000000000000000000000000008152600401611164906154e3565b60405180910390fd5b60011515600160089054906101000a900460ff161515146111c3576040517f08c379a00000000000000000000000000000000000000000000000000000000081526004016111ba90615563565b60405180910390fd5b60011515600360049054906101000a900460ff16151514611219576040517f08c379a000000000000000000000000000000000000000000000000000000000815260040161121090615703565b60405180910390fd5b600060028461ffff1660048110611259577f4e487b7100000000000000000000000000000000000000000000000000000000600052603260045260246000fd5b601091828204019190066002029054906101000a900461ffff1690506000601481819054906101000a900461ffff168092919061129590615aab565b91906101000a81548161ffff021916908361ffff160217905550506112b8614405565b60008561ffff161415611308576040518060400160405280600581526020017f6a6177617200000000000000000000000000000000000000000000000000000081525081602001819052506113e9565b60018561ffff161415611358576040518060400160405280600681526020017f62616a617261000000000000000000000000000000000000000000000000000081525081602001819052506113e8565b60028561ffff1614156113a8576040518060400160405280600581526020017f776865617400000000000000000000000000000000000000000000000000000081525081602001819052506113e7565b6040518060400160405280600981526020017f67726f756e646e7574000000000000000000000000000000000000000000000081525081602001819052505b5b5b600060149054906101000a900461ffff16816000019061ffff16908161ffff168152505083816040019061ffff16908161ffff168152505082816060018190525033816080019073ffffffffffffffffffffffffffffffffffffffff16908173ffffffffffffffffffffffffffffffffffffffff16815250508181610100019061ffff16908161ffff168152505060018160e0019015159081151581525050600660003373ffffffffffffffffffffffffffffffffffffffff1673ffffffffffffffffffffffffffffffffffffffff16815260200190815260200160002060010180546114d590615a79565b80601f016020809104026020016040519081016040528092919081815260200182805461150190615a79565b801561154e5780601f106115235761010080835404028352916020019161154e565b820191906000526020600020905b81548152906001019060200180831161153157829003601f168201915b505050505081610120018190525080600760008060149054906101000a900461ffff1661ffff1661ffff16815260200190815260200160002060008201518160000160006101000a81548161ffff021916908361ffff16021790555060208201518160010190805190602001906115c692919061437f565b5060408201518160020160006101000a81548161ffff021916908361ffff160217905550606082015181600301908051906020019061160692919061437f565b5060808201518160040160006101000a81548173ffffffffffffffffffffffffffffffffffffffff021916908373ffffffffffffffffffffffffffffffffffffffff16021790555060a08201518160050160006101000a81548173ffffffffffffffffffffffffffffffffffffffff021916908373ffffffffffffffffffffffffffffffffffffffff16021790555060c08201518160060160006101000a81548173ffffffffffffffffffffffffffffffffffffffff021916908373ffffffffffffffffffffffffffffffffffffffff16021790555060e08201518160060160146101000a81548160ff0219169083151502179055506101008201518160060160156101000a81548161ffff021916908361ffff16021790555061012082015181600701908051906020019061173d92919061437f565b509050505050505050565b600060169054906101000a900461ffff1681565b60008054906101000a900473ffffffffffffffffffffffffffffffffffffffff1673ffffffffffffffffffffffffffffffffffffffff163373ffffffffffffffffffffffffffffffffffffffff1614156117eb576040517f08c379a00000000000000000000000000000000000000000000000000000000081526004016117e2906155e3565b60405180910390fd5b60001515600460003373ffffffffffffffffffffffffffffffffffffffff1673ffffffffffffffffffffffffffffffffffffffff16815260200190815260200160002060050160009054906101000a900460ff16151514611881576040517f08c379a000000000000000000000000000000000000000000000000000000000815260040161187890615683565b60405180910390fd5b60001515600660003373ffffffffffffffffffffffffffffffffffffffff1673ffffffffffffffffffffffffffffffffffffffff16815260200190815260200160002060050160009054906101000a900460ff16151514611917576040517f08c379a000000000000000000000000000000000000000000000000000000000815260040161190e906157e3565b60405180910390fd5b60001515600560003373ffffffffffffffffffffffffffffffffffffffff1673ffffffffffffffffffffffffffffffffffffffff16815260200190815260200160002060040160149054906101000a900460ff161515146119ad576040517f08c379a00000000000000000000000000000000000000000000000000000000081526004016119a490615463565b60405180910390fd5b6000601c81819054906101000a900461ffff16809291906119cd90615aab565b91906101000a81548161ffff021916908361ffff1602179055505060006040518060c001604052806000601c9054906101000a900461ffff1661ffff1681526020018581526020018481526020013373ffffffffffffffffffffffffffffffffffffffff16815260200183815260200160011515815250905080600460003373ffffffffffffffffffffffffffffffffffffffff1673ffffffffffffffffffffffffffffffffffffffff16815260200190815260200160002060008201518160000160006101000a81548161ffff021916908361ffff1602179055506020820151816001019080519060200190611ac592919061437f565b506040820151816002019080519060200190611ae292919061437f565b5060608201518160030160006101000a81548173ffffffffffffffffffffffffffffffffffffffff021916908373ffffffffffffffffffffffffffffffffffffffff1602179055506080820151816004019080519060200190611b4692919061437f565b5060a08201518160050160006101000a81548160ff02191690831515021790555090505050505050565b600060169054906101000a900461ffff1661ffff168261ffff1611158015611b9c575060008261ffff16115b8015611bac575060008161ffff16115b611beb576040517f08c379a0000000000000000000000000000000000000000000000000000000008152600401611be290615663565b60405180910390fd5b806001600860008561ffff1661ffff16815260200190815260200160002060050160149054906101000a900461ffff16611c25919061597b565b611c2f919061597b565b61ffff163414611c74576040517f08c379a0000000000000000000000000000000000000000000000000000000008152600401611c6b90615783565b60405180910390fd5b60011515600560003373ffffffffffffffffffffffffffffffffffffffff1673ffffffffffffffffffffffffffffffffffffffff16815260200190815260200160002060040160149054906101000a900460ff16151514611d0a576040517f08c379a0000000000000000000000000000000000000000000000000000000008152600401611d0190615603565b60405180910390fd5b8061ffff16600860008461ffff1661ffff16815260200190815260200160002060020160029054906101000a900461ffff1661ffff161015611d81576040517f08c379a0000000000000000000000000000000000000000000000000000000008152600401611d7890615643565b60405180910390fd5b611d896144a8565b6000601881819054906101000a900461ffff1680929190611da990615aab565b91906101000a81548161ffff021916908361ffff16021790555050600060189054906101000a900461ffff16816000019061ffff16908161ffff1681525050600860008461ffff1661ffff16815260200190815260200160002060020160009054906101000a900461ffff16816040019061ffff16908161ffff168152505081600860008561ffff1661ffff16815260200190815260200160002060020160029054906101000a900461ffff16611e6091906159b7565b816060019061ffff16908161ffff168152505081816080019061ffff16908161ffff1681525050600860008461ffff1661ffff1681526020019081526020016000206001018054611eb090615a79565b80601f0160208091040260200160405190810160405280929190818152602001828054611edc90615a79565b8015611f295780601f10611efe57610100808354040283529160200191611f29565b820191906000526020600020905b815481529060010190602001808311611f0c57829003601f168201915b50505050508160200181905250600860008461ffff1661ffff1681526020019081526020016000206003018054611f5f90615a79565b80601f0160208091040260200160405190810160405280929190818152602001828054611f8b90615a79565b8015611fd85780601f10611fad57610100808354040283529160200191611fd8565b820191906000526020600020905b815481529060010190602001808311611fbb57829003601f168201915b50505050508160a00181905250600860008461ffff1661ffff16815260200190815260200160002060040160009054906101000a900473ffffffffffffffffffffffffffffffffffffffff168160c0019073ffffffffffffffffffffffffffffffffffffffff16908173ffffffffffffffffffffffffffffffffffffffff1681525050600860008461ffff1661ffff16815260200190815260200160002060050160009054906101000a900473ffffffffffffffffffffffffffffffffffffffff168160e0019073ffffffffffffffffffffffffffffffffffffffff16908173ffffffffffffffffffffffffffffffffffffffff16815250503381610100019073ffffffffffffffffffffffffffffffffffffffff16908173ffffffffffffffffffffffffffffffffffffffff1681525050600560003373ffffffffffffffffffffffffffffffffffffffff1673ffffffffffffffffffffffffffffffffffffffff168152602001908152602001600020600101805461215790615a79565b80601f016020809104026020016040519081016040528092919081815260200182805461218390615a79565b80156121d05780601f106121a5576101008083540402835291602001916121d0565b820191906000526020600020905b8154815290600101906020018083116121b357829003601f168201915b5050505050816101400181905250600860008461ffff1661ffff16815260200190815260200160002060050160149054906101000a900461ffff16600360029054906101000a900461ffff166064600860008761ffff1661ffff16815260200190815260200160002060050160149054906101000a900461ffff16612255919061594a565b61225f919061597b565b6122699190615912565b81610120019061ffff16908161ffff168152505081600860008561ffff1661ffff16815260200190815260200160002060020160029054906101000a900461ffff166122b591906159b7565b600860008561ffff1661ffff16815260200190815260200160002060020160026101000a81548161ffff021916908361ffff160217905550600860008461ffff1661ffff16815260200190815260200160002060050160009054906101000a900473ffffffffffffffffffffffffffffffffffffffff1673ffffffffffffffffffffffffffffffffffffffff166108fc836001600860008861ffff1661ffff16815260200190815260200160002060050160149054906101000a900461ffff1661237f919061597b565b612389919061597b565b61ffff169081150290604051600060405180830381858888f193505050501580156123b8573d6000803e3d6000fd5b5080600960008060189054906101000a900461ffff1661ffff1661ffff16815260200190815260200160002060008201518160000160006101000a81548161ffff021916908361ffff160217905550602082015181600101908051906020019061242392919061437f565b5060408201518160020160006101000a81548161ffff021916908361ffff16021790555060608201518160020160026101000a81548161ffff021916908361ffff16021790555060808201518160020160046101000a81548161ffff021916908361ffff16021790555060a08201518160030190805190602001906124a992919061437f565b5060c08201518160040160006101000a81548173ffffffffffffffffffffffffffffffffffffffff021916908373ffffffffffffffffffffffffffffffffffffffff16021790555060e08201518160050160006101000a81548173ffffffffffffffffffffffffffffffffffffffff021916908373ffffffffffffffffffffffffffffffffffffffff1602179055506101008201518160060160006101000a81548173ffffffffffffffffffffffffffffffffffffffff021916908373ffffffffffffffffffffffffffffffffffffffff1602179055506101208201518160060160146101000a81548161ffff021916908361ffff1602179055506101408201518160070190805190602001906125c192919061437f565b50905050505050565b60008054906101000a900473ffffffffffffffffffffffffffffffffffffffff1673ffffffffffffffffffffffffffffffffffffffff163373ffffffffffffffffffffffffffffffffffffffff1614612658576040517f08c379a000000000000000000000000000000000000000000000000000000000815260040161264f906154c3565b60405180910390fd5b60008261ffff16118015612670575060008161ffff16115b61267957600080fd5b81600360006101000a81548161ffff021916908361ffff16021790555080600360026101000a81548161ffff021916908361ffff1602179055506001600360046101000a81548160ff0219169083151502179055505050565b600060149054906101000a900461ffff1681565b60008261ffff161180156126fe575060008161ffff16115b61273d576040517f08c379a000000000000000000000000000000000000000000000000000000000815260040161273490615743565b60405180910390fd5b60011515600460003373ffffffffffffffffffffffffffffffffffffffff1673ffffffffffffffffffffffffffffffffffffffff16815260200190815260200160002060050160009054906101000a900460ff161515146127d3576040517f08c379a00000000000000000000000000000000000000000000000000000000081526004016127ca90615483565b60405180910390fd5b600760008361ffff1661ffff16815260200190815260200160002060060160159054906101000a900461ffff16600360009054906101000a900461ffff166064600760008661ffff1661ffff16815260200190815260200160002060060160159054906101000a900461ffff1661284a919061594a565b612854919061597b565b61285e9190615912565b61ffff168161ffff16106128a7576040517f08c379a000000000000000000000000000000000000000000000000000000000815260040161289e90615523565b60405180910390fd5b80600860008461ffff1661ffff16815260200190815260200160002060050160146101000a81548161ffff021916908361ffff1602179055505050565b600060149054906101000a900461ffff1661ffff168261ffff1611158015612910575060008261ffff16115b8015612920575060008161ffff16115b801561293f575060008060149054906101000a900461ffff1661ffff16115b61297e576040517f08c379a0000000000000000000000000000000000000000000000000000000008152600401612975906155c3565b60405180910390fd5b806001600760008561ffff1661ffff16815260200190815260200160002060060160159054906101000a900461ffff166129b8919061597b565b6129c2919061597b565b61ffff163414612a07576040517f08c379a00000000000000000000000000000000000000000000000000000000081526004016129fe90615783565b60405180910390fd5b60011515600460003373ffffffffffffffffffffffffffffffffffffffff1673ffffffffffffffffffffffffffffffffffffffff16815260200190815260200160002060050160009054906101000a900460ff16151514612a9d576040517f08c379a0000000000000000000000000000000000000000000000000000000008152600401612a94906156c3565b60405180910390fd5b8061ffff16600760008461ffff1661ffff16815260200190815260200160002060020160009054906101000a900461ffff1661ffff161015612b14576040517f08c379a0000000000000000000000000000000000000000000000000000000008152600401612b0b90615643565b60405180910390fd5b612b1c614558565b6000601681819054906101000a900461ffff1680929190612b3c90615aab565b91906101000a81548161ffff021916908361ffff16021790555050600060169054906101000a900461ffff16816000019061ffff16908161ffff168152505081600760008561ffff1661ffff16815260200190815260200160002060020160009054906101000a900461ffff16612bb391906159b7565b816040019061ffff16908161ffff1681525050600760008461ffff1661ffff1681526020019081526020016000206001018054612bef90615a79565b80601f0160208091040260200160405190810160405280929190818152602001828054612c1b90615a79565b8015612c685780601f10612c3d57610100808354040283529160200191612c68565b820191906000526020600020905b815481529060010190602001808311612c4b57829003601f168201915b5050505050816020018190525081816060019061ffff16908161ffff1681525050600760008461ffff1661ffff1681526020019081526020016000206003018054612cb290615a79565b80601f0160208091040260200160405190810160405280929190818152602001828054612cde90615a79565b8015612d2b5780601f10612d0057610100808354040283529160200191612d2b565b820191906000526020600020905b815481529060010190602001808311612d0e57829003601f168201915b50505050508160800181905250600760008461ffff1661ffff16815260200190815260200160002060040160009054906101000a900473ffffffffffffffffffffffffffffffffffffffff168160a0019073ffffffffffffffffffffffffffffffffffffffff16908173ffffffffffffffffffffffffffffffffffffffff1681525050338160c0019073ffffffffffffffffffffffffffffffffffffffff16908173ffffffffffffffffffffffffffffffffffffffff1681525050600460003373ffffffffffffffffffffffffffffffffffffffff1673ffffffffffffffffffffffffffffffffffffffff1681526020019081526020016000206001018054612e3390615a79565b80601f0160208091040260200160405190810160405280929190818152602001828054612e5f90615a79565b8015612eac5780601f10612e8157610100808354040283529160200191612eac565b820191906000526020600020905b815481529060010190602001808311612e8f57829003601f168201915b5050505050816101000181905250600760008461ffff1661ffff16815260200190815260200160002060060160159054906101000a900461ffff16600360009054906101000a900461ffff166064600760008761ffff1661ffff16815260200190815260200160002060060160159054906101000a900461ffff16612f31919061594a565b612f3b919061597b565b612f459190615912565b8160e0019061ffff16908161ffff168152505081600760008561ffff1661ffff16815260200190815260200160002060020160009054906101000a900461ffff16612f9091906159b7565b600760008561ffff1661ffff16815260200190815260200160002060020160006101000a81548161ffff021916908361ffff160217905550600760008461ffff1661ffff16815260200190815260200160002060040160009054906101000a900473ffffffffffffffffffffffffffffffffffffffff1673ffffffffffffffffffffffffffffffffffffffff166108fc836001600760008861ffff1661ffff16815260200190815260200160002060060160159054906101000a900461ffff1661305a919061597b565b613064919061597b565b61ffff169081150290604051600060405180830381858888f19350505050158015613093573d6000803e3d6000fd5b5080600860008060169054906101000a900461ffff1661ffff1661ffff16815260200190815260200160002060008201518160000160006101000a81548161ffff021916908361ffff16021790555060208201518160010190805190602001906130fe92919061437f565b5060408201518160020160006101000a81548161ffff021916908361ffff16021790555060608201518160020160026101000a81548161ffff021916908361ffff160217905550608082015181600301908051906020019061316192919061437f565b5060a08201518160040160006101000a81548173ffffffffffffffffffffffffffffffffffffffff021916908373ffffffffffffffffffffffffffffffffffffffff16021790555060c08201518160050160006101000a81548173ffffffffffffffffffffffffffffffffffffffff021916908373ffffffffffffffffffffffffffffffffffffffff16021790555060e08201518160050160146101000a81548161ffff021916908361ffff16021790555061010082015181600601908051906020019061323092919061437f565b50905050505050565b613241614558565b60008261ffff1611801561326d5750600060169054906101000a900461ffff1661ffff168261ffff1611155b6132ac576040517f08c379a00000000000000000000000000000000000000000000000000000000081526004016132a390615663565b60405180910390fd5b600860008361ffff1661ffff168152602001908152602001600020604051806101200160405290816000820160009054906101000a900461ffff1661ffff1661ffff16815260200160018201805461330390615a79565b80601f016020809104026020016040519081016040528092919081815260200182805461332f90615a79565b801561337c5780601f106133515761010080835404028352916020019161337c565b820191906000526020600020905b81548152906001019060200180831161335f57829003601f168201915b505050505081526020016002820160009054906101000a900461ffff1661ffff1661ffff1681526020016002820160029054906101000a900461ffff1661ffff1661ffff1681526020016003820180546133d590615a79565b80601f016020809104026020016040519081016040528092919081815260200182805461340190615a79565b801561344e5780601f106134235761010080835404028352916020019161344e565b820191906000526020600020905b81548152906001019060200180831161343157829003601f168201915b505050505081526020016004820160009054906101000a900473ffffffffffffffffffffffffffffffffffffffff1673ffffffffffffffffffffffffffffffffffffffff1673ffffffffffffffffffffffffffffffffffffffff1681526020016005820160009054906101000a900473ffffffffffffffffffffffffffffffffffffffff1673ffffffffffffffffffffffffffffffffffffffff1673ffffffffffffffffffffffffffffffffffffffff1681526020016005820160149054906101000a900461ffff1661ffff1661ffff16815260200160068201805461353390615a79565b80601f016020809104026020016040519081016040528092919081815260200182805461355f90615a79565b80156135ac5780601f10613581576101008083540402835291602001916135ac565b820191906000526020600020905b81548152906001019060200180831161358f57829003601f168201915b5050505050815250509050919050565b600060189054906101000a900461ffff1661ffff168261ffff16111580156135e8575060008261ffff16115b8015613607575060008060189054906101000a900461ffff1661ffff16115b613646576040517f08c379a000000000000000000000000000000000000000000000000000000000815260040161363d90615723565b60405180910390fd5b806001600960008561ffff1661ffff16815260200190815260200160002060060160149054906101000a900461ffff16613680919061597b565b61368a919061597b565b61ffff1634146136cf576040517f08c379a00000000000000000000000000000000000000000000000000000000081526004016136c690615783565b60405180910390fd5b3373ffffffffffffffffffffffffffffffffffffffff16600560003373ffffffffffffffffffffffffffffffffffffffff1673ffffffffffffffffffffffffffffffffffffffff16815260200190815260200160002060040160009054906101000a900473ffffffffffffffffffffffffffffffffffffffff1673ffffffffffffffffffffffffffffffffffffffff1614156137a0576040517f08c379a000000000000000000000000000000000000000000000000000000000815260040161379790615583565b60405180910390fd5b8061ffff16600960008461ffff1661ffff16815260200190815260200160002060020160049054906101000a900461ffff1661ffff161015613817576040517f08c379a000000000000000000000000000000000000000000000000000000000815260040161380e906156a3565b60405180910390fd5b600081600960008561ffff1661ffff16815260200190815260200160002060020160049054906101000a900461ffff1661385191906159b7565b905080600960008561ffff1661ffff16815260200190815260200160002060020160046101000a81548161ffff021916908361ffff160217905550600960008461ffff1661ffff16815260200190815260200160002060060160009054906101000a900473ffffffffffffffffffffffffffffffffffffffff1673ffffffffffffffffffffffffffffffffffffffff166108fc836001600960008861ffff1661ffff16815260200190815260200160002060060160149054906101000a900461ffff1661391e919061597b565b613928919061597b565b61ffff169081150290604051600060405180830381858888f19350505050158015613957573d6000803e3d6000fd5b50505050565b600060189054906101000a900461ffff1661ffff168261ffff1611158015613989575060008261ffff16115b8015613999575060008161ffff16115b6139d8576040517f08c379a00000000000000000000000000000000000000000000000000000000081526004016139cf90615663565b60405180910390fd5b60011515600560003373ffffffffffffffffffffffffffffffffffffffff1673ffffffffffffffffffffffffffffffffffffffff16815260200190815260200160002060040160149054906101000a900460ff16151514613a6e576040517f08c379a0000000000000000000000000000000000000000000000000000000008152600401613a6590615483565b60405180910390fd5b600860008361ffff1661ffff16815260200190815260200160002060050160149054906101000a900461ffff16600360029054906101000a900461ffff166064600860008661ffff1661ffff16815260200190815260200160002060050160149054906101000a900461ffff16613ae5919061594a565b613aef919061597b565b613af99190615912565b61ffff168161ffff1610613b42576040517f08c379a0000000000000000000000000000000000000000000000000000000008152600401613b3990615523565b60405180910390fd5b80600960008461ffff1661ffff16815260200190815260200160002060060160146101000a81548161ffff021916908361ffff1602179055505050565b600060189054906101000a900461ffff1681565b613b9b6144a8565b600060189054906101000a900461ffff1661ffff168261ffff1611158015613bc7575060008261ffff16115b8015613be6575060008060189054906101000a900461ffff1661ffff16115b613c25576040517f08c379a0000000000000000000000000000000000000000000000000000000008152600401613c1c90615443565b60405180910390fd5b600960008361ffff1661ffff168152602001908152602001600020604051806101600160405290816000820160009054906101000a900461ffff1661ffff1661ffff168152602001600182018054613c7c90615a79565b80601f0160208091040260200160405190810160405280929190818152602001828054613ca890615a79565b8015613cf55780601f10613cca57610100808354040283529160200191613cf5565b820191906000526020600020905b815481529060010190602001808311613cd857829003601f168201915b505050505081526020016002820160009054906101000a900461ffff1661ffff1661ffff1681526020016002820160029054906101000a900461ffff1661ffff1661ffff1681526020016002820160049054906101000a900461ffff1661ffff1661ffff168152602001600382018054613d6e90615a79565b80601f0160208091040260200160405190810160405280929190818152602001828054613d9a90615a79565b8015613de75780601f10613dbc57610100808354040283529160200191613de7565b820191906000526020600020905b815481529060010190602001808311613dca57829003601f168201915b505050505081526020016004820160009054906101000a900473ffffffffffffffffffffffffffffffffffffffff1673ffffffffffffffffffffffffffffffffffffffff1673ffffffffffffffffffffffffffffffffffffffff1681526020016005820160009054906101000a900473ffffffffffffffffffffffffffffffffffffffff1673ffffffffffffffffffffffffffffffffffffffff1673ffffffffffffffffffffffffffffffffffffffff1681526020016006820160009054906101000a900473ffffffffffffffffffffffffffffffffffffffff1673ffffffffffffffffffffffffffffffffffffffff1673ffffffffffffffffffffffffffffffffffffffff1681526020016006820160149054906101000a900461ffff1661ffff1661ffff168152602001600782018054613f2290615a79565b80601f0160208091040260200160405190810160405280929190818152602001828054613f4e90615a79565b8015613f9b5780601f10613f7057610100808354040283529160200191613f9b565b820191906000526020600020905b815481529060010190602001808311613f7e57829003601f168201915b5050505050815250509050919050565b613fb3614405565b600060149054906101000a900461ffff1661ffff168261ffff1611158015613fdf575060008261ffff16115b61401e576040517f08c379a000000000000000000000000000000000000000000000000000000000815260040161401590615763565b60405180910390fd5b600760008361ffff1661ffff168152602001908152602001600020604051806101400160405290816000820160009054906101000a900461ffff1661ffff1661ffff16815260200160018201805461407590615a79565b80601f01602080910402602001604051908101604052809291908181526020018280546140a190615a79565b80156140ee5780601f106140c3576101008083540402835291602001916140ee565b820191906000526020600020905b8154815290600101906020018083116140d157829003601f168201915b505050505081526020016002820160009054906101000a900461ffff1661ffff1661ffff16815260200160038201805461412790615a79565b80601f016020809104026020016040519081016040528092919081815260200182805461415390615a79565b80156141a05780601f10614175576101008083540402835291602001916141a0565b820191906000526020600020905b81548152906001019060200180831161418357829003601f168201915b505050505081526020016004820160009054906101000a900473ffffffffffffffffffffffffffffffffffffffff1673ffffffffffffffffffffffffffffffffffffffff1673ffffffffffffffffffffffffffffffffffffffff1681526020016005820160009054906101000a900473ffffffffffffffffffffffffffffffffffffffff1673ffffffffffffffffffffffffffffffffffffffff1673ffffffffffffffffffffffffffffffffffffffff1681526020016006820160009054906101000a900473ffffffffffffffffffffffffffffffffffffffff1673ffffffffffffffffffffffffffffffffffffffff1673ffffffffffffffffffffffffffffffffffffffff1681526020016006820160149054906101000a900460ff161515151581526020016006820160159054906101000a900461ffff1661ffff1661ffff1681526020016007820180546142f690615a79565b80601f016020809104026020016040519081016040528092919081815260200182805461432290615a79565b801561436f5780601f106143445761010080835404028352916020019161436f565b820191906000526020600020905b81548152906001019060200180831161435257829003601f168201915b5050505050815250509050919050565b82805461438b90615a79565b90600052602060002090601f0160209004810192826143ad57600085556143f4565b82601f106143c657805160ff19168380011785556143f4565b828001600101855582156143f4579182015b828111156143f35782518255916020019190600101906143d8565b5b50905061440191906145e0565b5090565b604051806101400160405280600061ffff16815260200160608152602001600061ffff16815260200160608152602001600073ffffffffffffffffffffffffffffffffffffffff168152602001600073ffffffffffffffffffffffffffffffffffffffff168152602001600073ffffffffffffffffffffffffffffffffffffffff168152602001600015158152602001600061ffff168152602001606081525090565b604051806101600160405280600061ffff16815260200160608152602001600061ffff168152602001600061ffff168152602001600061ffff16815260200160608152602001600073ffffffffffffffffffffffffffffffffffffffff168152602001600073ffffffffffffffffffffffffffffffffffffffff168152602001600073ffffffffffffffffffffffffffffffffffffffff168152602001600061ffff168152602001606081525090565b604051806101200160405280600061ffff16815260200160608152602001600061ffff168152602001600061ffff16815260200160608152602001600073ffffffffffffffffffffffffffffffffffffffff168152602001600073ffffffffffffffffffffffffffffffffffffffff168152602001600061ffff168152602001606081525090565b5b808211156145f95760008160009055506001016145e1565b5090565b600061461061460b846158b5565b615884565b90508281526020810184848401111561462857600080fd5b614633848285615a37565b509392505050565b600082601f83011261464c57600080fd5b813561465c8482602086016145fd565b91505092915050565b60008135905061467481615ba3565b92915050565b60008060006060848603121561468f57600080fd5b600084013567ffffffffffffffff8111156146a957600080fd5b6146b58682870161463b565b935050602084013567ffffffffffffffff8111156146d257600080fd5b6146de8682870161463b565b925050604084013567ffffffffffffffff8111156146fb57600080fd5b6147078682870161463b565b9150509250925092565b60006020828403121561472357600080fd5b600061473184828501614665565b91505092915050565b6000806040838503121561474d57600080fd5b600061475b85828601614665565b925050602061476c85828601614665565b9150509250929050565b60008060006060848603121561478b57600080fd5b600061479986828701614665565b93505060206147aa86828701614665565b925050604084013567ffffffffffffffff8111156147c757600080fd5b6147d38682870161463b565b9150509250925092565b600080600080608085870312156147f357600080fd5b600061480187828801614665565b945050602061481287828801614665565b935050604061482387828801614665565b925050606061483487828801614665565b91505092959194509250565b614849816159eb565b82525050565b614858816159fd565b82525050565b6000614869826158e5565b61487381856158f0565b9350614883818560208601615a46565b61488c81615b92565b840191505092915050565b60006148a4602a83615901565b91507f456e7465722076616c69642063726f702049642f4e6f2063726f70732061766160008301527f696c61626c6520796574000000000000000000000000000000000000000000006020830152604082019050919050565b600061490a601883615901565b91507f596f752061726520616c72656164792073756265616c657200000000000000006000830152602082019050919050565b600061494a601583615901565b91507f596f7520617265206e6f742072656769737472656400000000000000000000006000830152602082019050919050565b600061498a601983615901565b91507f596f752061726520616c7265616479207375626465616c6572000000000000006000830152602082019050919050565b60006149ca601983615901565b91507f204f6e6c7920676f7665726e6d656e742063616e2063616c6c000000000000006000830152602082019050919050565b6000614a0a603083615901565b91507f596f7520617265206e6f74207265676973746572656420796574206f7220796f60008301527f7520617265206e6f74206661726d6572000000000000000000000000000000006020830152604082019050919050565b6000614a70601483615901565b91507f6f776e65722063616e74206265206661726d65720000000000000000000000006000830152602082019050919050565b6000614ab0603383615901565b91507f53657474696e6720707269636520686967686572207468616e20676f76206e6f60008301527f726d7320617265206e6f7420616c6c6f776564000000000000000000000000006020830152604082019050919050565b6000614b16601983615901565b91507f596f752061726520616c726561647920726567697374726564000000000000006000830152602082019050919050565b6000614b56601f83615901565b91507f676f762069736e7420696e697469616c697a65642070726963657320796574006000830152602082019050919050565b6000614b96601b83615901565b91507f596f752063616e742062757920796f7572206f776e2063726f707300000000006000830152602082019050919050565b6000614bd6602083615901565b91507f507574206f6e6c792076616c7565732067726561746572207468616e203130306000830152602082019050919050565b6000614c16601383615901565b91507f656e7465722076616c6964206e756d62657273000000000000000000000000006000830152602082019050919050565b6000614c56601483615901565b91507f6f776e65722063616e74206265206465616c65720000000000000000000000006000830152602082019050919050565b6000614c96601683615901565b91507f596f7520617265206e6f742072656769737465726564000000000000000000006000830152602082019050919050565b6000614cd6601683615901565b91507f596f752061726520616c7265616479204465616c6572000000000000000000006000830152602082019050919050565b6000614d16602683615901565b91507f63726f7020696e2074686973207175616e74697479206973206e6f742061766160008301527f696c61626c6500000000000000000000000000000000000000000000000000006020830152604082019050919050565b6000614d7c601383615901565b91507f456e7465722076616c6964206e756d62657273000000000000000000000000006000830152602082019050919050565b6000614dbc601a83615901565b91507f596f752061726520616c726561647920726567697374657265640000000000006000830152602082019050919050565b6000614dfc602d83615901565b91507f54686973206d756368207175616e74697479206e6f7420617661696c61626c6560008301527f206174207375626465616c6572000000000000000000000000000000000000006020830152604082019050919050565b6000614e62602483615901565b91507f596f7520617265206e6f74206465616c6572206f72206e6f742072656769737460008301527f65726564000000000000000000000000000000000000000000000000000000006020830152604082019050919050565b6000614ec8601783615901565b91507f6f776e65722063616e74206265207375626465616c65720000000000000000006000830152602082019050919050565b6000614f08602583615901565b91507f676f762069736e7420696e697469616c697a65642070726f666974207261746560008301527f73207965740000000000000000000000000000000000000000000000000000006020830152604082019050919050565b6000614f6e602783615901565b91507f456e7465722076616c69642063726f702049642f63726f7073206e6f7420617660008301527f61696c61626c65000000000000000000000000000000000000000000000000006020830152604082019050919050565b6000614fd4601283615901565b91507f456e7465722076616c6964206e756d62657200000000000000000000000000006000830152602082019050919050565b6000615014600f83615901565b91507f496e76616c69642063726f7020496400000000000000000000000000000000006000830152602082019050919050565b6000615054601883615901565b91507f506c656173652073656e6420657861637420616d6f756e7400000000000000006000830152602082019050919050565b6000615094602183615901565b91507f7175616e746974792073686f756c642062652067726561746572207468616e2060008301527f30000000000000000000000000000000000000000000000000000000000000006020830152604082019050919050565b60006150fa601683615901565b91507f596f752061726520616c7265616479206465616c6572000000000000000000006000830152602082019050919050565b600061513a601683615901565b91507f596f752061726520616c7265616479206661726d6572000000000000000000006000830152602082019050919050565b6000610140830160008301516151866000860182615425565b506020830151848203602086015261519e828261485e565b91505060408301516151b36040860182615425565b50606083015184820360608601526151cb828261485e565b91505060808301516151e06080860182614840565b5060a08301516151f360a0860182614840565b5060c083015161520660c0860182614840565b5060e083015161521960e086018261484f565b5061010083015161522e610100860182615425565b50610120830151848203610120860152615248828261485e565b9150508091505092915050565b60006101208301600083015161526e6000860182615425565b5060208301518482036020860152615286828261485e565b915050604083015161529b6040860182615425565b5060608301516152ae6060860182615425565b50608083015184820360808601526152c6828261485e565b91505060a08301516152db60a0860182614840565b5060c08301516152ee60c0860182614840565b5060e083015161530160e0860182615425565b5061010083015184820361010086015261531b828261485e565b9150508091505092915050565b6000610160830160008301516153416000860182615425565b5060208301518482036020860152615359828261485e565b915050604083015161536e6040860182615425565b5060608301516153816060860182615425565b5060808301516153946080860182615425565b5060a083015184820360a08601526153ac828261485e565b91505060c08301516153c160c0860182614840565b5060e08301516153d460e0860182614840565b506101008301516153e9610100860182614840565b506101208301516153fe610120860182615425565b50610140830151848203610140860152615418828261485e565b9150508091505092915050565b61542e81615a09565b82525050565b61543d81615a09565b82525050565b6000602082019050818103600083015261545c81614897565b9050919050565b6000602082019050818103600083015261547c816148fd565b9050919050565b6000602082019050818103600083015261549c8161493d565b9050919050565b600060208201905081810360008301526154bc8161497d565b9050919050565b600060208201905081810360008301526154dc816149bd565b9050919050565b600060208201905081810360008301526154fc816149fd565b9050919050565b6000602082019050818103600083015261551c81614a63565b9050919050565b6000602082019050818103600083015261553c81614aa3565b9050919050565b6000602082019050818103600083015261555c81614b09565b9050919050565b6000602082019050818103600083015261557c81614b49565b9050919050565b6000602082019050818103600083015261559c81614b89565b9050919050565b600060208201905081810360008301526155bc81614bc9565b9050919050565b600060208201905081810360008301526155dc81614c09565b9050919050565b600060208201905081810360008301526155fc81614c49565b9050919050565b6000602082019050818103600083015261561c81614c89565b9050919050565b6000602082019050818103600083015261563c81614cc9565b9050919050565b6000602082019050818103600083015261565c81614d09565b9050919050565b6000602082019050818103600083015261567c81614d6f565b9050919050565b6000602082019050818103600083015261569c81614daf565b9050919050565b600060208201905081810360008301526156bc81614def565b9050919050565b600060208201905081810360008301526156dc81614e55565b9050919050565b600060208201905081810360008301526156fc81614ebb565b9050919050565b6000602082019050818103600083015261571c81614efb565b9050919050565b6000602082019050818103600083015261573c81614f61565b9050919050565b6000602082019050818103600083015261575c81614fc7565b9050919050565b6000602082019050818103600083015261577c81615007565b9050919050565b6000602082019050818103600083015261579c81615047565b9050919050565b600060208201905081810360008301526157bc81615087565b9050919050565b600060208201905081810360008301526157dc816150ed565b9050919050565b600060208201905081810360008301526157fc8161512d565b9050919050565b6000602082019050818103600083015261581d818461516d565b905092915050565b6000602082019050818103600083015261583f8184615255565b905092915050565b600060208201905081810360008301526158618184615328565b905092915050565b600060208201905061587e6000830184615434565b92915050565b6000604051905081810181811067ffffffffffffffff821117156158ab576158aa615b63565b5b8060405250919050565b600067ffffffffffffffff8211156158d0576158cf615b63565b5b601f19601f8301169050602081019050919050565b600081519050919050565b600082825260208201905092915050565b600082825260208201905092915050565b600061591d82615a09565b915061592883615a09565b92508261ffff0382111561593f5761593e615ad6565b5b828201905092915050565b600061595582615a09565b915061596083615a09565b9250826159705761596f615b05565b5b828204905092915050565b600061598682615a09565b915061599183615a09565b92508161ffff04831182151516156159ac576159ab615ad6565b5b828202905092915050565b60006159c282615a09565b91506159cd83615a09565b9250828210156159e0576159df615ad6565b5b828203905092915050565b60006159f682615a17565b9050919050565b60008115159050919050565b600061ffff82169050919050565b600073ffffffffffffffffffffffffffffffffffffffff82169050919050565b82818337600083830152505050565b60005b83811015615a64578082015181840152602081019050615a49565b83811115615a73576000848401525b50505050565b60006002820490506001821680615a9157607f821691505b60208210811415615aa557615aa4615b34565b5b50919050565b6000615ab682615a09565b915061ffff821415615acb57615aca615ad6565b5b600182019050919050565b7f4e487b7100000000000000000000000000000000000000000000000000000000600052601160045260246000fd5b7f4e487b7100000000000000000000000000000000000000000000000000000000600052601260045260246000fd5b7f4e487b7100000000000000000000000000000000000000000000000000000000600052602260045260246000fd5b7f4e487b7100000000000000000000000000000000000000000000000000000000600052604160045260246000fd5b6000601f19601f8301169050919050565b615bac81615a09565b8114615bb757600080fd5b5056fea264697066735822122079ceeb34c8ef77d68ae0d27e357151f49778bffc605a7c16e1943e7acf0b65b264736f6c63430008000033",
  "immutableReferences": {},
  "source": "//SPDX-License-Identifier: <SPDX-License>SPDX-License-Identifier: UNLICENSED\r\npragma solidity ^0.8.0;\r\n\r\ncontract AgriBlock\r\n{\r\n//state variables\r\n    address owner;\r\n    uint16 public cropCounter; //for key as crop mapping n counting crops\r\n    uint16 public dCropCounter; //for key as dealer's crop mapping n counting crops\r\n    uint16 public sdCropCounter;//\r\n    uint16 farmerCounter;\r\n    uint16 dealerCounter;\r\n    uint16 subdealerCounter;\r\n    \r\n    //bool isCropsAvailableForCustomers=false;\r\n     \r\n    //crops\r\n    uint16 jwari;\r\n    uint16 bajari;\r\n    uint16 wheat;\r\n    uint16 groundnut;\r\n    bool allPricesSet;\r\n    uint16 arraySize = 4;\r\n    uint16 [4]  cropTypes;\r\n   \r\n    uint16 dealerProfitPercent;\r\n    uint16 subdealerProfitPercent;\r\n    bool setProfitPercent;\r\n   \r\n//mappings\r\n//1 dealer to his address\r\n    mapping ( address => Dealer) dealers;\r\n//2 subdealer to his address\r\n    mapping ( address => SubDealer) subdealers;\r\n//3 farmer to his address\r\n    mapping ( address => Farmer) farmers;\r\n//4 crop\r\n    mapping ( uint16  => Crop )  crops;\r\n//5 farmer to his Id\r\n\r\n//7 for dealers cropAdde\r\n    mapping (uint16 => DCrop) dcrops;\r\n    mapping (uint16 => SDCrop) sdcrops;\r\n   \r\n//events\r\n    // event farmerRegistered ( string, uint16, string );\r\n    // event dealerRegistered ( string,uint16,string );\r\n    // event subdealerRegistered ( string,uint16,string );\r\n    // event cropAdded ( string );\r\n    // event boughtFromFarmer( DCrop );\r\n    // event boughtFromDealer( SDCrop);\r\n    // event boughtFromSubdealer( uint16 );\r\n    // event cropPricesSetDone(uint16,uint16,uint16,uint16);\r\n    // event newPriceSetByDealer(uint16);\r\n    // event thisManyCrops(uint16);\r\n\r\n//constructor\r\nconstructor()\r\n    {\r\n        owner = msg.sender;\r\n    }\r\n\r\n//structs\r\n\r\n    struct Farmer\r\n    {\r\n        uint16 farmerId;\r\n        string farmerName;\r\n        string contact;\r\n        address addrs;\r\n        string email;\r\n        bool isRegistered;\r\n    }\r\n\r\n    struct Dealer\r\n    {\r\n        uint16 dealerId;\r\n        string dealerName;\r\n        string contact;\r\n        address addrs;\r\n        string email;\r\n        bool isRegistered;\r\n    }\r\n\r\n    struct SubDealer\r\n    {\r\n        uint16 subDealerId;\r\n        string subdealerName;\r\n        string contact;\r\n        string email;\r\n        address  addrs;\r\n        bool isRegistered;\r\n    }\r\n\r\n    struct Crop\r\n    {\r\n        uint16 cropId;\r\n        string cropName;\r\n        uint16 farmer_quantity;\r\n        string location;\r\n        address payable farmerAddrs;\r\n        address payable dealerAddrs;\r\n        address payable subDealerAddrs;\r\n        bool isAdded;\r\n        uint16 cropPrice;\r\n        //uint16 cropType;\r\n        string farmerName;\r\n    }\r\n    struct DCrop //struct for delaer's crop\r\n    {\r\n        uint16 cropId;\r\n        string cropName;\r\n        uint16 farmer_quantity;\r\n        uint16 dealer_quantity;\r\n        string location;\r\n        address payable farmerAddrs;\r\n        address payable dealerAddrs;\r\n        //bool isAdded;\r\n        uint16 cropPrice;\r\n        //uint16 cropType;\r\n        string dealerName;\r\n\r\n    }\r\n   \r\n    struct SDCrop ////struct for delaer's crop\r\n    {\r\n        uint16 cropId;\r\n        string cropName;\r\n        uint16 farmer_quantity;\r\n        uint16 dealer_quantity;\r\n        uint16 subdealer_quantity;//imp\r\n        string location;\r\n        address payable farmerAddrs;\r\n        address payable dealerAddrs;\r\n        address payable subdealerAddrs;//imp\r\n        //bool isAdded;\r\n        uint16 cropPrice;\r\n        //uint16 cropType;\r\n        string subdealerName;\r\n\r\n    }\r\n\r\n//functions\r\n//functions for GOV\r\n    function setPrice\r\n    (\r\n        uint16 _jwari,\r\n        uint16 _bajari,\r\n        uint16 _wheat,\r\n        uint16 _groundnut\r\n    )\r\n    public\r\n    {\r\n        \r\n        require ( msg.sender == owner, \" Only government can call\");\r\n        require ( _jwari >= 100 && _bajari >= 100 && _wheat >= 100 && _groundnut >= 100, \"Put only values greater than 100\");\r\n        cropTypes[0]=_jwari;\r\n        cropTypes[1]=_bajari;\r\n        cropTypes[2]=_wheat;\r\n        cropTypes[3]=_groundnut;\r\n        allPricesSet = true;\r\n       // emit cropPricesSetDone (_jwari,_bajari,_wheat,_groundnut);\r\n    }\r\n   \r\n    function setProfitPercentage\r\n    (\r\n        uint16 _forDealer,\r\n        uint16 _forSubdealer\r\n    )\r\n    public\r\n    {\r\n        require ( msg.sender == owner, \" Only government can call\");\r\n        require (_forDealer> 0 && _forSubdealer>0 );\r\n        dealerProfitPercent =_forDealer;\r\n        subdealerProfitPercent = _forSubdealer;\r\n        setProfitPercent = true;\r\n       \r\n    }\r\n\r\n//functions for farmer\r\n\r\n    function registerFarmer\r\n    (\r\n        string memory _farmerName,\r\n        string memory _phoneNumber,\r\n        string memory _email\r\n    )\r\n    public\r\n    {\r\n        require ( msg.sender!= owner ,\"owner cant be farmer\");\r\n        require (farmers[msg.sender].isRegistered == false, \"You are already registred\");\r\n        require (dealers[msg.sender].isRegistered == false, \"You are already Dealer\");\r\n        require (subdealers[msg.sender].isRegistered == false, \"You are already subdealer\");\r\n        farmerCounter++;\r\n        Farmer memory farmer = Farmer ( farmerCounter, _farmerName, _phoneNumber, msg.sender, _email ,true);\r\n        farmers [msg.sender] = farmer;\r\n        //emit farmerRegistered(_farmerName,_phoneNumber, _email );\r\n\r\n    }\r\n\r\n    function addCropDetails   //only farmer can call\r\n    (\r\n        uint16 _cropType,\r\n        uint16 _quantity,\r\n        string memory _location\r\n    )\r\n    public\r\n    {\r\n\r\n        require ( _quantity >0 ,\"quantity should be greater than 0\");\r\n        require (farmers[msg.sender].isRegistered == true, \"You are not registered yet or you are not farmer\");\r\n        require ( allPricesSet==true , \"gov isnt initialized prices yet\" );\r\n        require ( setProfitPercent == true , \"gov isnt initialized profit rates yet\" );\r\n        //require ( _cropType < arraySize && _cropType >= 0 , \"invalid crop type\");\r\n        uint16 cropPr = cropTypes[_cropType]; //fetched cropPrice by cropType (by gov)\r\n        cropCounter++;\r\n        Crop memory crop ;\r\n       \r\n        if( _cropType == 0)\r\n        {\r\n            crop.cropName = \"jawar\";\r\n        }else if(_cropType == 1)\r\n        {\r\n            crop.cropName = \"bajara\";\r\n        }else if(_cropType == 2)\r\n        {\r\n            crop.cropName = \"wheat\";\r\n        }else{\r\n            crop.cropName = \"groundnut\";\r\n        }\r\n       \r\n        crop.cropId=cropCounter;\r\n        //adding crop type to cropType\r\n        //crop.cropType = _cropType;        \r\n        crop.farmer_quantity=_quantity;\r\n        crop.location=_location;\r\n        crop.farmerAddrs = payable(msg.sender);\r\n        crop.cropPrice = cropPr ;\r\n        crop.isAdded=true;\r\n        crop.farmerName=farmers[msg.sender].farmerName;\r\n        crops[cropCounter] = crop;\r\n        \r\n        //emit cropAdded(crop.cropName);\r\n    }\r\n \r\n    //functions for dealer\r\n    function registerDealer\r\n    (\r\n        string memory _dealerName,\r\n        string memory _phoneNumber,\r\n        string memory _email\r\n    )\r\n    public\r\n    {\r\n        require ( msg.sender!= owner ,\"owner cant be dealer\" );\r\n        require ( dealers[msg.sender].isRegistered == false, \"You are already registered\");\r\n        require (farmers[msg.sender].isRegistered == false, \"You are already farmer\");\r\n        require (subdealers[msg.sender].isRegistered == false, \"You are already subealer\");\r\n        dealerCounter++;\r\n        Dealer memory dealer = Dealer (dealerCounter,_dealerName,_phoneNumber, msg.sender, _email, true );\r\n        dealers[msg.sender]=dealer;\r\n        //emit dealerRegistered( _dealerName,_phoneNumber,_email);\r\n    }\r\n\r\n    function seeCropsAtFarmer \r\n    (uint16 _cropId)\r\n    public view \r\n    returns( Crop memory)\r\n    {\r\n        require (_cropId <= cropCounter && _cropId >0, \"Invalid crop Id\");\r\n        return crops[_cropId];\r\n    }\r\n\r\n\r\n    function buyFromFarmer\r\n    (\r\n        uint16 _cropId,\r\n        uint16 _quantity\r\n    )\r\n    public payable //for dealer\r\n    {\r\n        require (_cropId <= cropCounter && _cropId >0 && _quantity >0 && cropCounter>0, \"enter valid numbers\");\r\n        require(msg.value == ((crops[_cropId].cropPrice)* 1 wei)* _quantity, \"Please send exact amount\" );\r\n        require ( dealers[msg.sender].isRegistered == true , \"You are not dealer or not registered\" );\r\n        require((crops[_cropId].farmer_quantity)>=_quantity,\"crop in this quantity is not available\");\r\n        //creating dealers crop instance    \r\n        DCrop memory dcrop;\r\n        dCropCounter++;\r\n        dcrop.cropId=dCropCounter;\r\n        //dcrop.cropType = crops[_cropId].cropType;//adding crop type to cropType\r\n        dcrop.farmer_quantity = (crops[_cropId].farmer_quantity)-(_quantity);//_fQuantity;\r\n        dcrop.cropName = crops[_cropId].cropName;\r\n        dcrop.dealer_quantity = _quantity;\r\n        dcrop.location = crops[_cropId].location;//_loc;\r\n        dcrop.farmerAddrs = crops[_cropId].farmerAddrs; //_fAddrs;\r\n        dcrop.dealerAddrs = payable(msg.sender);\r\n        dcrop.dealerName = dealers[msg.sender].dealerName;\r\n        //dcrop.isAdded = true;\r\n        dcrop.cropPrice = ((((crops[_cropId].cropPrice))/100)* dealerProfitPercent)+crops[_cropId].cropPrice;\r\n        //modifying farmer's crop ( decreasing farmer's qnt)\r\n        crops [_cropId].farmer_quantity = ( crops[_cropId].farmer_quantity ) - ( _quantity ); //newFarmerQuantity;//changing new farmer qnt\r\n        crops[_cropId].farmerAddrs.transfer( ((crops[_cropId].cropPrice)* 1 wei)* _quantity );// transferrina money to farmer for his crops\r\n        dcrops[dCropCounter] = dcrop;// adding dealer's crop to mapping\r\n        //emit boughtFromFarmer( dcrops[dCropCounter]);\r\n    }\r\n   \r\n    function dealerSetPriceOfCropExpl //for competetion between dealers\r\n    (\r\n        uint16 _cropId,\r\n        uint16 _newPrice\r\n    )\r\n    public\r\n    {\r\n        require ( _cropId >0 && _newPrice >0,\"Enter valid number\");\r\n        require ( dealers[msg.sender].isRegistered == true, \"You are not registred\");\r\n        require ( _newPrice < ((((crops[_cropId].cropPrice)/100)*dealerProfitPercent)+(crops[_cropId].cropPrice)), \"Setting price higher than gov norms are not allowed\" );\r\n        dcrops[_cropId].cropPrice =_newPrice;\r\n       // emit newPriceSetByDealer(_newPrice);\r\n       \r\n    }\r\n\r\n//functions for subdealer\r\n    function registerSubdealer\r\n    (\r\n        string memory _subdealerName,\r\n        string memory _phoneNumber,\r\n        string memory _email\r\n    )\r\n    public\r\n    {\r\n        require ( msg.sender!= owner ,\"owner cant be subdealer\" );\r\n        require ( subdealers[msg.sender].isRegistered == false, \"You are already registered\");\r\n        require (farmers[msg.sender].isRegistered == false, \"You are already farmer\");\r\n        require (dealers[msg.sender].isRegistered == false, \"You are already dealer\");\r\n        subdealerCounter++;\r\n        SubDealer memory subdealer = SubDealer (subdealerCounter,_subdealerName,_phoneNumber, _email,msg.sender, true );\r\n        subdealers [msg.sender]=subdealer;\r\n        //emit subdealerRegistered( _subdealerName,_phoneNumber,_email );\r\n    }\r\n\r\n    function seeCropsAtDealer \r\n    (uint16 _cropId)\r\n    public view returns(DCrop memory ) //for subdealer\r\n    {\r\n        require (_cropId >0 && _cropId <= dCropCounter,\"Enter valid numbers\");\r\n        return dcrops[_cropId];\r\n    }\r\n\r\n\r\n\r\n    function buyFromDealer\r\n    (\r\n        uint16 _cropId,\r\n        uint16 _quantity\r\n    )\r\n    public payable //for subdealer\r\n    {\r\n        require (_cropId <= dCropCounter && _cropId >0 && _quantity >0,\"Enter valid numbers\");\r\n        require(msg.value == ((dcrops[_cropId].cropPrice)* 1 wei)* _quantity, \"Please send exact amount\" );\r\n        require ( subdealers[msg.sender].isRegistered == true , \"You are not registered\" );\r\n        require((dcrops[_cropId].dealer_quantity) >= _quantity,\"crop in this quantity is not available\");\r\n        //creating subdealers crop instance    \r\n        SDCrop memory sdcrop;\r\n        sdCropCounter++;\r\n        sdcrop.cropId = sdCropCounter;\r\n        //adding crop type to cropType\r\n        //sdcrop.cropType = dcrops [_cropId].cropType;\r\n        sdcrop.farmer_quantity = dcrops[_cropId].farmer_quantity;\r\n        sdcrop.dealer_quantity = (dcrops[_cropId].dealer_quantity) - ( _quantity);\r\n        sdcrop.subdealer_quantity = _quantity;\r\n        sdcrop.cropName = dcrops[_cropId].cropName;\r\n        sdcrop.location = dcrops[_cropId].location;\r\n        sdcrop.farmerAddrs = dcrops[_cropId].farmerAddrs;\r\n        sdcrop.dealerAddrs = dcrops[_cropId].dealerAddrs;\r\n        sdcrop.subdealerAddrs = payable(msg.sender);\r\n        sdcrop.subdealerName = subdealers[msg.sender].subdealerName;\r\n        //sdcrop.isAdded = true;\r\n        sdcrop.cropPrice = (((dcrops[_cropId].cropPrice)/100)* subdealerProfitPercent)+dcrops[_cropId].cropPrice;\r\n        //modifying dealer's crop ( decreasing farmer's qnt)\r\n        dcrops [_cropId].dealer_quantity = ( dcrops[_cropId].dealer_quantity ) - ( _quantity );//changing new dealer qnt\r\n        dcrops[_cropId].dealerAddrs.transfer( ((dcrops[_cropId].cropPrice) * 1 wei)* _quantity );// transferrina money to dealer for his crops\r\n        sdcrops[sdCropCounter] = sdcrop;// adding subdealer's crop to mapping\r\n        //isCropsAvailableForCustomers=true;\r\n        //emit boughtFromDealer( sdcrops[sdCropCounter]);\r\n    }\r\n   \r\n    function subdealerSetPriceOfCropExpl\r\n    (\r\n        uint16 _cropId,\r\n        uint16 _newPrice\r\n    )\r\n    public\r\n    {\r\n        require (_cropId <= sdCropCounter && _cropId>0 && _newPrice>0,\"Enter valid numbers\");\r\n        require ( subdealers[msg.sender].isRegistered == true, \"You are not registred\");\r\n        require ( _newPrice < ((((dcrops[_cropId].cropPrice)/100)*subdealerProfitPercent)+(dcrops[_cropId].cropPrice)), \"Setting price higher than gov norms are not allowed\" );\r\n        sdcrops[_cropId].cropPrice =_newPrice;\r\n    }\r\n   \r\n//functions for customer\r\n    function seeCropsAtSubdealer \r\n    (    uint16 _cropId ) \r\n    public view returns ( SDCrop memory )//SDCrop memory)\r\n    {  \r\n        require ( _cropId <= sdCropCounter && _cropId >0 && sdCropCounter>0,\"Enter valid crop Id/No crops available yet\");\r\n        return sdcrops[_cropId];\r\n    }\r\n\r\n\r\n\r\n    function buyCrop\r\n    (\r\n        uint16 _cropId,\r\n        uint16 _quantity\r\n    )\r\n    public payable//for customer\r\n    {\r\n        require ( _cropId <= sdCropCounter && _cropId >0 && sdCropCounter >0,\"Enter valid crop Id/crops not available\");\r\n        require(msg.value == ((sdcrops[_cropId].cropPrice)* 1 wei)* _quantity, \"Please send exact amount\" );\r\n        require ( subdealers[msg.sender].addrs != msg.sender , \"You cant buy your own crops\");\r\n        require( sdcrops[_cropId].subdealer_quantity >= _quantity ,\"This much quantity not available at subdealer\");\r\n        uint16 newSubdealerQuantity = (sdcrops[_cropId].subdealer_quantity) - _quantity;\r\n        sdcrops[_cropId].subdealer_quantity = newSubdealerQuantity;\r\n        sdcrops[_cropId].subdealerAddrs.transfer(((sdcrops[_cropId].cropPrice) * 1 wei)*_quantity);\r\n        //emit boughtFromSubdealer(_cropId);\r\n    }\r\n\r\n\r\n//   function getPriceForQuantityInWeiForCustomer\r\n//   (uint16 _cropId, uint16 _quantity) \r\n//   public view returns(uint16 _quote) \r\n//   {\r\n//         require (_cropId >0 && _cropId <= sdCropCounter && _quantity>0 && sdCropCounter>0,\"Enter valid numbers/No crops yet\");\r\n//         return (((sdcrops[_cropId].cropPrice)* 1 wei)* _quantity);\r\n//     }\r\n\r\n//   function getPriceForQuantityInWeiForSubdealer\r\n//   (uint16 _cropId, uint16 _quantity) \r\n//   public view returns(uint16 _quote) {\r\n         \r\n//         require ( _cropId>0 && _cropId <= sdCropCounter && _quantity >0,\"Enter valid crop Id\");\r\n//         return (((dcrops[_cropId].cropPrice)* 1 wei)* _quantity);\r\n//     }\r\n\r\n   \r\n//     function getPriceForQuantityInWeiForDealer\r\n//     (uint16 _cropId, uint16 _quantity) \r\n//     public view returns(uint16 _quote) \r\n//     {\r\n//         require (_cropId >0 && _quantity >0 && _cropId <= dCropCounter,\"enter valid number\");\r\n//         return (((crops[_cropId].cropPrice)* 1 wei)* _quantity);\r\n//     }\r\n    \r\n    function getPriceForQuantityInWei\r\n    (uint16 _cropId, uint16 _quantity)\r\n    public view returns(uint16 _quote)\r\n    {\r\n        if(dealers[msg.sender].isRegistered == true)\r\n        {\r\n            return (((crops[_cropId].cropPrice)* 1 wei)* _quantity);\r\n        }\r\n        else if (subdealers[msg.sender].isRegistered == true)\r\n        {\r\n            return (((dcrops[_cropId].cropPrice)* 1 wei)* _quantity);\r\n        }\r\n        else{\r\n                return (((sdcrops[_cropId].cropPrice)* 1 wei)* _quantity);\r\n        }\r\n        \r\n    }\r\n\r\n\r\n}\r\n\r\n",
  "sourcePath": "C:/Users/swapn/Blockchain/AgriBlock/contracts/AgriBlock.sol",
  "compiler": {
    "name": "solc",
    "version": "0.8.0+commit.c7dfd78e.Emscripten.clang"
  },
  "schemaVersion": "3.3.4",
  "updatedAt": "2021-03-22T16:48:52.581Z",
  "networkType": "ethereum",
  "devdoc": {
    "kind": "dev",
    "methods": {},
    "version": 1
  },
  "userdoc": {
    "kind": "user",
    "methods": {},
    "version": 1
  }
}